S00E000070776D70776D2E737265636E
S11300000C942A000C9434000C9434000C943400A6
S11300100C9434000C9434000C9434000C9434008C
S11300200C9434000C9434000C9434000C9434007C
S11300300C9434000C9434000C9434000C9434006C
S11300400C9434000C9434000C9434000C9434005C
S11300500C94340011241FBECFE5D4E0DEBFCDBF25
S11300600E9436000C9445000C94000083B7896606
S113007083BFBB9A1CBE8CB78F5F8CBF87EA91E6A7
S11100800197F1F700C00000F6CFF894FFCF0F
S9030000FC
