S01C00006465626F756E63655F616761696E5F616761696E2E7372656305
S11300000C942A000C9434000C9434000C943400A6
S11300100C9434000C9434000C9434000C9434008C
S11300200C9434000C9434000C9434000C9434007C
S11300300C9434000C9434000C9434000C9434006C
S11300400C9434000C9434000C9434000C9434005C
S11300500C94340011241FBECFE5D4E0DEBFCDBF25
S11300600E9436000C9467000C9400008F98BB9A91
S1130070979A20E030E081E090E040E050E0A0E09A
S1130080F0E0E8E071E060E014C001968536910587
S113009084F04115510559F402C020E030E088B3E2
S11300A08E2788BB80E090E0472F562F02C080E067
S11300B090E02F5F3F4F253631053CF3019685369E
S11300C091055CF720E030E04A2F5F2FF2CFF894DF
S10500D0FFCF5C
S9030000FC
