S00B00004144432E7372656351
S11300000C942A000C943C000C943C000C943C008E
S11300100C943C000C943C000C943C000C943C006C
S11300200C943C000C943C000C943C000C943C005C
S11300300C943C000C943C000C944B000C943C003D
S11300400C943C000C943C000C943C000C943C003C
S11300500C943C0011241FBECFE5D4E0DEBFCDBF1D
S113006020E0A0E6B0E001C01D92A036B207E1F79F
S11300700E943E000C945A000C94000083B78166E1
S113008083BFBB9A86B18C6886B987B1806687B90D
S11300907894369AFFCF1F920F920FB60F921124C5
S11300A08F9385B18CBF369A8F910F900FBE0F90AE
S10B00B01F901895F894FFCF8E
S9030000FC
